:100000000C9421030C940A2D0C9459030C9459035D
:100010000C9459030C9459030C9459030C945903F0
:100020000C9459030C9459030C9419270C94D5265D
:100030000C9416280C9459030C9459030C945903EE
:100040000C9459030C9459030C9459030C945903C0
:100050000C9459030C94F2270C9459030C945903F3
:100060000C9459030C9459030C9459030C945903A0
:100070000C9459030C9459030C9459030C94590390
:100080000C9459030C9459030C9459030C94590380
:100090000C9459030C9459030C9459030C94590370
:1000A0000C9459030C9459030C9459032A00E20050
:1000B00000002A00E10000000F001800000001000D
:1000C00001000100010001000100010014001A00FC
:1000D0000900130005000100042815241621172229
:1000E0000A2F01001D001B00060007001900000078
:1000F000000029412B422C430100010001000100B6
:10010000010001000100010033001C0018000F0075
:100110000D00010012380C3408311132102F01008B
:100120003800370036000B000E00000000004C4481
:100130002A452841010001000100010001000100E1
:1001400001000100010001000100010001000100A7
:100150000100010001000100010001000100010097
:100160000100010001000000000001000100010089
:100170000100010001000100010001000100010077
:100180003100240225023500340001002E02210234
:10019000220223023402010031021E021F02200249
:1001A000350200000000010001002D0001000100E7
:1001B0000100010001000100010001000100010037
:1001C0000100010001000100010001000100010027
:1001D0000100010001000100010001000100000018
:1001E0000000010001000100010001000100010008
:1001F00001000100010001000100610060005F00DA
:100200000100010001005E005D005C0001000100D2
:1002100001005B005A00590062000000000001006C
:1002200001000100010001000100010001000100C6
:1002300001000100010001000100010001000100B6
:1002400001000100010001000100010001000100A6
:100250000100010001000000000001000100010098
:100260000100010001000100010001000100010086
:100270002702260230022F020100010001004F0078
:1002800052005100500001003602370230002F00AA
:100290000100000000000100010001000100010058
:1002A0000100010001000100010001000100010046
:1002B0000100010001000100010001000100010036
:1002C0000100010001000100010001000100000027
:1002D0000000010001000100010001000100010017
:1002E00001000100010001002702260230022F0256
:1002F0000100010001004F005200510050000100B8
:100300003602370230002F0001000000000001001B
:1003100001000100010001000100010001000100D5
:1003200001000100010001000100010001000100C5
:1003300001000100010001000100010001000100B5
:1003400001000100010000000000010001000100A7
:100350000100010001000100010001000100010095
:10036000277825782378217820780100AB00A90030
:10037000AA00AC0001000100010001000100010021
:10038000010000000000A800AE00AD000100000167
:100390000101010101010101020202020202020245
:1003A0000203030303030303030404040404040417
:1003B00005050505050606060606070707070708DB
:1003C000080808090909090A0A0A0B0B0B0C0C0C8E
:1003D0000D0D0D0E0E0E0F0F0F1010111111121228
:1003E00013131414151516161717181819191A1AA5
:1003F0001B1B1C1D1D1E1E1F202021222223242406
:10040000252626272829292A2B2C2D2D2E2F303141
:100410003232333435363738393A3B3C3D3E3F4053
:100420004142434445464748494A4C4D4E4F50513E
:100430005354555658595A5B5D5E5F6162646566F8
:1004400068696B6C6D6F7072737577787A7B7D7E7F
:100450008082838587888A8C8E8F91939596989ACF
:100460009C9EA0A2A3A5A7A9ABADAFB1B3B5B7BAE7
:10047000BCBEC0C2C4C6C9CBCDCFD1D4D6D8DBDDBB
:10048000DFE2E4E7E9EBEEF0F3F5F8FAFDFF000058
:10049000000000000000000000000000000000005C
:1004A000000000000000000000000000000000004C
:1004B00000007E0F00D4FFFFFFC70000007800009F
:1004C0000000000000002A2B2800000000000000AF
:1004D00000000000000000000029000000002C1EA9
:1004E0003420212224342627252E362D3738271E66
:1004F0001F202122232425263333362E37381F048C
:1005000005060708090A0B0C0D0E0F101112131423
:1005100015161718191A1B1C1D2F3130232D3504E1
:1005200005060708090A0B0C0D0E0F101112131403
:1005300015161718191A1B1C1D2F3130354C6A6FF0
:100540006368656E4073746965726265726765722F
:100550002E636F6D0005010980A101850319012A31
:10056000B700150126B700950175108100C0050C74
:100570000901A101850419012AA002150126A00282
:10058000950175108100C005010906A10105071933
:10059000E029E7150025019508750181029501758F
:1005A0000881010507190029FF150026FF0095069F
:1005B0007508810005081901290595057501910245
:1005C000950175039101C009023B00020100A0FAE8
:1005D00009040000010301010009211101000122A9
:1005E0004000070581030800010904010001030020
:1005F00000000921110100012232000705820320B9
:100600000001120100020000000810CB5672000722
:100610000102000118034900720069007300200004
:100620005200650076002E002000370000000E0307
:100630004B0065006500620069006F000000040364
:10064000090411241FBECFEFDAE0DEBFCDBF04B630
:1006500003FE18C08091800590918105A0918205CC
:10066000B09183058730904BA740B04B59F410925E
:100670008005109281051092820510928305E0E0BA
:10068000F8E3099512E0A0E0B1E0E4E0FFE502C084
:1006900005900D92AA3CB107D9F725E0AAECB2E08B
:1006A00001C01D92A038B207E1F70E943D280C94CA
:1006B000342F0C94000090917A05937061F08111B1
:1006C0000BC0946090937A05109264018091790533
:1006D0008160809379050895813210F09068F2CF9F
:1006E000880F880F982BEECF90917A05937071F058
:1006F00080937B0560937C05493708F048E7409379
:100700007D05809179058160809379050895E8EDF4
:10071000F0E080818E7F80831092E2001092DA00F8
:100720001092E100A0EEB0E08C9181608C9380810A
:100730008F77808319BCA7EDB0E08C918E7F8C936E
:1007400080818F7E80831092340508952091E4008B
:100750003091E50095E6A9012091EC00822F81708F
:1007600020FF06C08091E80080FF06C080E0089569
:100770002091E80022FD1AC080914205882389F06B
:10078000853089F08091EB0085FD0FC02091E40059
:100790003091E50042175307F9F29150E1F684E0F9
:1007A000089582E0089583E0089581E0089580919E
:1007B000440587FF13C08091E80082FF06C0809146
:1007C000E8008B778093E80004C080914205811196
:1007D000F2CF0895809142058823D9F38091E800F3
:1007E00080FFF8CF8091E8008E77ECCF982F909320
:1007F000E900242F762F50E0891731F07091EC003A
:100800002091ED005091F00021FD07C09F5F9730CF
:1008100071F78093E90081E008953091EB003E7F0D
:100820003093EB003091ED003D7F3093ED0030913F
:10083000EB0031603093EB007093EC002093ED00FF
:100840005093F0002091EE0027FDE0CF80E0089566
:10085000B0E0A0E0EEE2F4E00C94302EC8EDD0E081
:1008600088818F7E8883E7EDF0E0808181608083DE
:1008700084E082BF81E08093340588818E7F888305
:1008800002EE10E0F80110821092DA0081EEC82E1C
:10089000D12CF601108288818F77888388818068C7
:1008A000888388818F7D888319BC109242051092BD
:1008B0004305109241051092400590EEE92EF12C6F
:1008C000F70180818B7F808388818160888342E00B
:1008D00060E080E00E94F603F60180818E7F8083D5
:1008E000F801808181608083808188608083F70146
:1008F00080818E7F8083888180618883CDB7DEB7D9
:10090000E8E00C944C2EFC0180914A0590914B0537
:1009100086179707A0F06115710529F49091E800FA
:100920009E779093E80090E06115710551F4911164
:1009300008C08091E80082FF34C080E00895BC01C7
:10094000F2CF809142058823C1F18530C1F18091B9
:10095000E80083FD30C08091E80082FDEACF8091FD
:10096000E80080FFE1CF8091F3002091F200382F62
:100970006115710519F02830310558F091E02830E3
:10098000310509F090E02091E8002E772093E800EF
:10099000CBCF81918093F100615071092F5F3F4F60
:1009A000E7CF80914205882341F0853041F0809166
:1009B000E80083FFBECF81E0089582E0089583E0E0
:1009C000089508958091370508959C014FB7F894D4
:1009D0008091300590913105A0913205B091330599
:1009E0004FBF821B930B08952FB7F8946091300589
:1009F0007091310580913205909133052FBF089594
:100A00002FB7F8948091300590913105A09132056F
:100A1000B09133052FBF0895A3E0B0E0E2E1F5E027
:100A20000C94362E20912D0530912E05281739076C
:100A3000A1F090932E0580932D05E0912B05F09168
:100A40002C05309751F024E029839B838A8306800C
:100A5000F781E02DCE01019609952396E2E00C94F2
:100A6000522EA3E0B0E0E7E3F5E00C94362E20919F
:100A7000290530912A0528173907A1F090932A05F6
:100A800080932905E0912B05F0912C05309751F0CA
:100A900023E029839B838A830680F781E02DCE01A2
:100AA000019609952396E2E00C94522EDC016091A8
:100AB000250580912605962F891301C00895292FB9
:100AC00030E0F901EE0FFF1FE35EFA4F40815181E4
:100AD0004A175B07A1F487E08A9FA0018B9F500D06
:100AE0001124465B5E4F81E0FA0184839613E6CFC2
:100AF0002F5F3F4F237033272093250508952F5FE5
:100B00003F4F922F9370D8CF1092B9041092B8042F
:100B1000EAE4F1E08581811102C0148216823796E1
:100B200081E0EF35F807B1F70895FC01680F791FF0
:100B30008FEF91E32191822728E030E087FF09C001
:100B4000880F892721503109C9F7E617F70791F770
:100B50000895880FF7CFFA01811101C0FB010995B3
:100B60000895EAE7F5E0248130E1231B08F420E052
:100B70002483809179058160809379050895EAE75F
:100B8000F5E0248130E1230F08F42FEF24838091D6
:100B900079058160809379050895EAE7F5E043815E
:100BA00020E1421B08F440E08181628190E00E94D4
:100BB00074030895EAE7F5E0438120E1420F08F469
:100BC0004FEF8181628190E00E9474030895EAE70B
:100BD000F5E0628120E1621B08F460E081814381DD
:100BE00090E00E9474030895EAE7F5E0628120E155
:100BF000620F08F46FEF8181438190E00E947403DB
:100C00000895EAE7F5E08181438162818850990B7C
:100C10000E9474030895EAE7F5E0818190E0438142
:100C2000628108960E947403089580917A058695E2
:100C30008695815009F480E20E945B0308958091BB
:100C40007A05869586958F5F813208F081E00E9453
:100C50005B0308958093490180917A0583708093A6
:100C600048010E940C1383E0809364010895EF9281
:100C7000FF920F939701201B31092F3F310519F087
:100C800010F02FEF30E0322F3095482F430F08F44B
:100C90004FEF842F620F0F91FF90EF900895EF9226
:100CA000FF920F93972F093438F4B701601B710935
:100CB0006F3F710519F010F06FEF70E0485F5F4F04
:100CC0004131510540F0A901485F5F4F4131510565
:100CD00010F06FEF70E06095482F460F08F44FEF6B
:100CE000842F37FF02C02D5F3F4F359527953595EF
:100CF000279560917B05620F792F0F91FF90EF9000
:100D00000895EF92FF920F931F930E0D1F2D111D4B
:100D1000F90137FF03C0F195E195F10924E0EE0FE9
:100D2000FF1F2A95E1F7EF3FF10519F014F0EFEFFF
:100D3000F0E09A0157FF03C031952195310994E005
:100D4000220F331F9A95E1F72E173F070CF4F90194
:100D5000E00FF11FEF3FF10519F010F0EFEFF0E0B9
:100D6000E095282F3E2F230F08F42FEF822F1F919D
:100D70000F91FF90EF900895EF92FF920F939701DC
:100D800095E0099F200D311D11242F3F310519F0E9
:100D900010F02FEF30E02095382F320F08F43FEF9E
:100DA000832F0F91FF90EF90089522E8241B08F401
:100DB00020E0620F08954095282F429F412D112475
:100DC000842F08950F931F9310E0F801EE0FFF1F7B
:100DD000E250FE4F9081905797FD9195000F111FA3
:100DE000F801EE53FE4F05AD0052110B2003F00148
:100DF000219FF00D112408E310E0091B110997FD54
:100E0000139540039001419F300D1124E20FF31F11
:100E10009F01220F331F2E0F3F1F37FF02C02158A3
:100E20003F4F220F232F221F330B620F1F910F9171
:100E300008950F931F93522F10E0F801EE0FFF1F3C
:100E4000EE53FE4FA5ADA052BB0B9D015203F00126
:100E5000539FF00D1124000F111FD801A250BE4F57
:100E60000C910057110B40039001419F300D11244C
:100E70002E0F3F1F37FF02C0215C3F4F96E0359594
:100E800027959A95E1F7620F1F910F9108950F939F
:100E90001F93522F10E0F801EE0FFF1FEE53FE4F8D
:100EA000A5ADA052BB0B9D015203F001539FF00D65
:100EB0001124000F111FD801A250BE4F0C910057F2
:100EC000110B40039001419F300D11242E0F3F1F45
:100ED00037FF02C021583F4F220F232F221F330B11
:100EE000620F1F910F910895EF920F93972F23E0B8
:100EF000029FB0011124759567956E0D792F0F91A2
:100F0000EF900895322F50E0FA01EE0FFF1FEE53DD
:100F1000FE4F95AD905297FD9195440F551FFA01E4
:100F2000E250FE4F2081231B330B290F311D97FD0B
:100F30003A95620F0895E42FF0E0EE0FFF1FEE5395
:100F4000FE4F65AD621B0895E42FF0E0EE0FFF1F2A
:100F5000E250FE4F6081621B0895622F0895E42FD6
:100F6000F0E0EE0FFF1FE250FE4F408134EE439F52
:100F7000412D1124E82FF0E050E0445E5F4FDA018C
:100F8000A21BB1099D01B7FF03C03195219531091D
:100F900093E0220F331F9A95E1F7AF01421B530BE9
:100FA0009A0157FD20E0582F259F212D1124822FD3
:100FB0000895E42FF0E0EE0FFF1FE250FE4F408156
:100FC00034EE439F412D1124E72FF0E050E0445EC2
:100FD0005F4FDA01A21BB1099D01B7FF03C0319534
:100FE0002195310993E0220F331F9A95E1F7AF0164
:100FF000421B530B9A0157FD20E0279F212D1124FE
:10100000722F08950E94060A0895FF920F931F936E
:10101000CF93DF93182F062FF42ED0E0C0E02F2DB2
:10102000402F612FCE010E9402082196C434D105C1
:10103000B1F7CDB7DEB7E5E00C944F2EFC019B0174
:10104000009729F480E077FF2BC080E80895AC0179
:1010500097FF04C044275527481B590BB901640F5B
:10106000751F37FD10C0241B350BC901A5E0880F83
:10107000991FAA95E1F70E94712E80E2861BF7FF67
:101080000FC081950895CB0165E0880F991F6A957F
:10109000E1F7BA01621B730B0E94712E80E6EECF5E
:1010A0000895EF920F93CF93DF93D72FC82FC901E5
:1010B0000E19BA010E941E08602F681B7D2F8C2F0D
:1010C000DF91CF910F91EF9008950F93CF93DF931E
:1010D000D72FC82FC901BA010E941E08682F600FC0
:1010E0007D2F8C2FDF91CF910F910895EF920F9369
:1010F0001F93CF93DF93D62FC72F182FC9010E1937
:10110000010FBA010E941E08081B202F219F212DCC
:101110001124822F6D2F7C2FDF91CF911F910F9182
:10112000EF900895EF920F931F93CF93DF93D62FF5
:10113000172FC82FC9010E19070FBA010E941E08E8
:10114000702F781B719F712D11246D2F8C2FDF91C3
:10115000CF911F910F91EF9008950F931F93CF930D
:10116000DF93D62FC72F182FC901212F201B022F45
:10117000BA010E941E08982F990F990F891B800FA2
:10118000282F219F212D1124822F6D2F7C2FDF915D
:10119000CF911F910F9108950F931F93CF93DF93DA
:1011A000D62F172FC82FC901272F201B022FBA01B6
:1011B0000E941E08982F990F990F782F791B700F96
:1011C000719F712D11246D2F8C2FDF91CF911F9165
:1011D0000F910895E82F86FDE0952E2F2F7086FD44
:1011E0002F5FE695E695E695E670F0E0E654FE4F53
:1011F0009181929F902D212D112492959F7022957F
:10120000207F922B2081920F87FD919580E8890F96
:101210000895AC018230910508F408959FEF413E96
:101220008EE1580740F49A0195E0369527959A95F6
:10123000E1F798E0920F61E0E62FE90FFF27FF1F2B
:101240009F0135952795822F229FF001239FF00D56
:10125000F00D11244E175F0738F49FEF920F961789
:1012600058F78FEF860F08952F3FE9F361E0620F83
:10127000F6CF0F93CF93DF93D72FC82F47FD41951C
:1012800088E390E0841B910947FD9395889FB00106
:10129000899F700D700D1124229FC001239F900D16
:1012A000900D1124860F971F0E940909982F990FFE
:1012B000890F682F600F7D2F8C2FDF91CF910F91B9
:1012C000089530E020E0869F212D969F200D311D4E
:1012D0001124C9010895AF92BF92CF92DF92FF927D
:1012E0000F931F93CF93DF93362F472FE82FF0E014
:1012F000E257FC4F71110FC0E4918E2F2E2F6E2FED
:10130000722FDF91CF911F910F91FF90DF90CF90BF
:10131000BF90AF900895C72FD0E02491F22E022FF6
:1013200010E056E0659FC0011124EFEFF0E0BF012F
:101330000E945D2E832F90E0880F991F35E5369F20
:10134000D001379FB00D11248A1B9B0B982F990F4A
:10135000980F6F01CC1ADD0AC09ED001C19EB00D5E
:10136000D09EB00D11248B2F499FA0011124452F31
:1013700055276F01C41AD50AC09EA001C19E500D09
:10138000D09E500D11245F01A91AB108AC9E6001D6
:10139000AD9ED00CBC9ED00C1124CD2CDD24EC19BC
:1013A000FD09E09FE001E19FD00DF09FD00D1124D9
:1013B000ED2F62307105A1F050F46115710509F44B
:1013C0009ECF6130710581F0EB2F852F98CF64306F
:1013D000710569F080F06630710509F490CFF4CFA3
:1013E000E22F2B2F8D2F8BCFE22F252F88CFEB2FA6
:1013F000822F2D2F84CF2B2F8F2DE52F80CF80E0B4
:10140000089589B185FB882780F90895FF920F938D
:101410001F93CF93DF93EC01F62E042F122F0E941F
:10142000010A81110FC0C232D1057CF0A297FE01E2
:10143000EE0FFF1FEC0FFD1FE551FC4FF182008303
:10144000128303C0C232D10594F3CDB7DEB7E5E015
:101450000C944F2ECF93C82F0E94010A882329F0A5
:1014600081E0C23228F080E003C081E0C434D8F7C4
:10147000CF910895A8E0B0E0E0E4FAE00C94262EC5
:10148000282E7C836B83209161018EE0289F802D24
:1014900011248D83825F8983853410F034E439838D
:1014A0000E94010A882329F08981833210F092E298
:1014B00099830E94010A811105C0ED81E23210F486
:1014C000F2E2FD83209150052A839D81892F90E0CF
:1014D00098878F83880F991FFC01EE53FE4F6F0191
:1014E000822D90E09C012F5F3F4F3E832D838981A9
:1014F0009F81981730F00E942A0A2896E2E10C9406
:10150000422EEF81F885EA57FD4F8081909162016C
:101510008923F9F030907B0540907C058D819E8178
:10152000805B9A4F3C01522C10E0FA815F16D8F094
:1015300020917D05129F112D1124632D742D812F73
:101540000E946B09462F282F672F8F8198850E9454
:1015500002082F8138852F5F3F4F38872F8332E075
:10156000C30ED11CC4CFF30181913F01F601A4AC9D
:10157000A81ABB0885ACF3018781881A9908AA9C30
:101580009001AB9C300D300D1124889CC001899CCA
:10159000900D900D1124820F931F0E940909082FAE
:1015A00060917E0521E0620F08F46FEFF301EE0F0A
:1015B000FF1FE055F540858996890E9461097C01ED
:1015C0009401A501632D742D812FEB81FC81099578
:1015D000362E472E5394182FA8CFB0E0A0E0E3EFAB
:1015E000FAE00C94302E7C01C09161018EE0C89F1E
:1015F000C02D11241EE01C0F153408F014E40E94C5
:10160000010A882319F0133208F012E20E94010A3D
:10161000811103C0C23208F4C2E220917E0531E09C
:10162000230F08F42FEF30E050E040E06FEF7FEF42
:1016300080E090E00E94852E6901D0E001E02C2F2F
:10164000C11740F0812F0E942A0ACDB7DEB7E8E02B
:101650000C944C2EFE01EA57FD4F8081909162015F
:10166000892309F1409150054150042E000C550B7F
:1016700047FF1BC0C60160917E05600F08F46FEF45
:101680000E946109AC0160917B0570917C0580919D
:101690007D05F70109950E946B09462F282F672FBA
:1016A000CE010E9402082196CACFFA01E05BFA4FF0
:1016B000818982130AC0FA01EE0FFF1FE05BFA4F27
:1016C000818D928D8C159D05B0F241505109D0CF7E
:1016D000B0E0A0E0EEE6FBE00C942E2E6C01C09191
:1016E00061018EE0C89FC02D11241EE01C0F15342F
:1016F00008F014E40E94010A882319F0133208F05C
:1017000012E20E94010A811103C0C23208F4C2E24F
:1017100060917E056695669580914C0590914D058A
:101720000E946109F82E80E48F0D0E94EA0890E87B
:10173000B92EB80E8F2D0E94EA0820E8A22EA80E1E
:10174000D0E0C11740F0812F0E942A0ACDB7DEB742
:10175000EAE00C944A2EFE01EA57FD4F80819091F9
:1017600062018923A1F060917B0570917C058091D5
:101770007D05EF2C0C2F2A2D4B2DF60109950E948B
:101780006B09462F282F672FCE010E940208219651
:10179000D8CFB0E0A0E0EFECFBE00C942A2E5C0187
:1017A000C09161018EE0C89FC02D11241EE01C0F66
:1017B000153408F014E40E94010A882319F013324A
:1017C00008F012E20E94010A811103C0C23208F43B
:1017D000C2E260917E05669580914C0590914D0521
:1017E0000E946109F82ED0E0CE01880F991F9C015C
:1017F0002E533E4F6901C11740F0812F0E942A0AE3
:10180000CDB7DEB7EEE00C94462EFE01EA57FD4F51
:10181000808190916201892379F1F60184AD282FAE
:101820002057330B490185ADE82FE052FF0B3F01F4
:10183000889C9001899C300D300D1124EE9FC001D1
:10184000EF9F900D900D1124820F931F0E940909A4
:10185000082F60917B0570917C0580917D05EF2CB0
:101860009301A401F50109950E946B09462F282FC9
:10187000672FCE010E940208F2E0CF0ED11C219604
:10188000BACFB0E0A0E0E7E4FCE00C942F2E6C01AE
:10189000C09161018EE0C89FC02D11241EE01C0F75
:1018A000153408F014E40E94010A882319F0133259
:1018B00008F012E20E94010A811103C0C23208F44A
:1018C000C2E260917E05669580914C0590914D0530
:1018D0000E946109B82ED0E0CE01880F991F9C01AB
:1018E0002E533E4F7901C11740F0812F0E942A0AE2
:1018F000CDB7DEB7E9E00C944B2EFE01EA57FD4F61
:101900008081909162018923C1F0F70125AD2052B9
:10191000330B44AD4057550B60917B0570917C05AE
:1019200080917D050B2DF60109950E946B09462FCC
:10193000282F672FCE010E940208F2E0EF0EF11C63
:101940002196D1CFEF92FF920F931F93CF93DF9306
:101950007C01C09161018EE0C89FC02D11241EE062
:101960001C0F153408F014E40E94010A882319F0B2
:10197000133208F012E20E94010A811103C0C23240
:1019800008F4C2E260917E056695669521E0620FDB
:1019900008F46FEF80914C0590914D050E9461090C
:1019A000082FD0E0C11740F0812F0E942A0ACDB73E
:1019B000DEB7E6E00C944E2EFE01EA57FD4F808123
:1019C00090916201892391F060917B0570917C0573
:1019D00080917D05202F4C2FF70109950E946B09FE
:1019E000462F282F672FCE010E9402082196DACFBA
:1019F000B0E0A0E0EEEFFCE00C942E2E182F8091CA
:101A00004901811323C090917A0593702091480178
:101A100030E081E09217130609F480E08170809332
:101A2000630180917F0590916201981739F080934E
:101A3000620140E060E080E00E940508113288F415
:101A4000E12FF0E0EA5CF04D0C94A42E81E0E6CFAB
:101A500080916301882389F140E060E080E00E948A
:101A6000050880E02AC0C09161018EE0C89FC02DAA
:101A700011240EE00C0F053408F004E40E94010A62
:101A8000882319F0033208F002E20E94010A811152
:101A900003C0C23208F4C2E260917B0570917C05FC
:101AA00080917D050E946B09F62EE72ED82ED0E09E
:101AB000C017D8F0802F0E942A0A909161019F5F81
:101AC0009093610181110CC082E080936401809148
:101AD0006301811105C0111103C083E0809364018B
:101AE000CDB7DEB7EAE00C944A2EFE01EA57FD4F6F
:101AF000808190916201892331F02D2D4F2D6E2D23
:101B0000CE010E9402082196D3CFC09161018EE0E0
:101B1000C89FC02D11240EE00C0F053408F004E41A
:101B20000E94010A882319F0033208F002E20E94A1
:101B3000010A811103C0C23208F4C2E2E0907C05C0
:101B4000F0907D05D0917B056D2F7E2D8F2D0E940D
:101B50006B09D62EC72EB82E60917E056D0F7E2D97
:101B60008F2D0E946B09F62EE72EA82ED0E0C0170D
:101B700008F0A0CFFE01EA57FD4F908180916201ED
:101B8000892359F02A2D4F2D6E2D90FD03C02B2D4A
:101B90004D2D6C2DCE010E9402082196E8CFC091F8
:101BA00061018EE0C89FC02D11240EE00C0F05349A
:101BB00008F004E40E94010A882319F0033208F0B7
:101BC00002E20E94010A811103C0C23208F4C2E29B
:101BD000E0907C05D0907D0520917E0550E4F52EA7
:101BE0003F2D329F312D1124F32ED0E0C01708F085
:101BF00061CFFE01EA57FD4F8081909162018923F8
:101C0000B9F0FE01EE0FFF1FEE53FE4F85AD82953A
:101C10008F7060917B058F9D600D11247E2D8D2D21
:101C20000E946B09462F282F672FCE010E940208C1
:101C30002196DCCFC09161018EE0C89FC02D112498
:101C40000EE00C0F053408F004E40E94010A88231A
:101C500019F0033208F002E20E94010A811103C068
:101C6000C23208F4C2E2E0907C05D0907D0520915C
:101C70007E0530E4F32E3F2D329F312D1124F32EBB
:101C8000D0E0C01708F016CFFE01EA57FD4F808163
:101C9000909162018923D9F0FE01EE0FFF1FEE53F0
:101CA000FE4F64ADF69EB001112495E075956795E1
:101CB0009A95E1F780917B05680F7E2D8D2D0E940E
:101CC0006B09462F282F672FCE010E94020821960C
:101CD000D8CFC09161018EE0C89FC02D11240EE0C5
:101CE0000C0F053408F004E40E94010A882319F05F
:101CF000033208F002E20E94010A811103C0C232DD
:101D000008F4C2E2F0907B05D0917C05E0907D055F
:101D100060917E0566956695669580914C059091DB
:101D20004D050E9461090E94EA08805887FD81954F
:101D3000880F282F3E2D239F212D1124822F6F2DB8
:101D40007D2F0E946B09F62EE72ED82ED0E0C0170B
:101D500008F0B0CEFE01EA57FD4F808190916201FC
:101D6000892331F02D2D4F2D6E2DCE010E940208BA
:101D70002196EDCF89ED97E00E94A20C9ECE8FEACE
:101D800097E0FACF8CEC98E00E94410C96CE8DEA59
:101D900098E0FACF82E998E00E94C90B8ECE86E7E0
:101DA00098E0FACF8DEA97E0E7CF84EA97E0E4CFB6
:101DB0008BE997E0E1CF82E897E0DECF84E797E018
:101DC000EBCF89E399E0E0CF85E698E0DDCF81E5D0
:101DD00098E0E2CF87E497E00E94680B6ECE89E13D
:101DE00097E0FACF82EE96E0F7CF8BED96E00E9477
:101DF000ED0A63CE85ED96E0FACF8091500521E0A3
:101E0000382F321B08F430E0832F6CEB76E00E9411
:101E10003A0A53CE6CEB76E080E0F9CF8091500522
:101E200021E0382F321B08F430E0832F61E876E0A0
:101E3000EECF61E876E0F0CF8091500521E0382FB9
:101E4000321B08F430E0832F6FE476E0E0CF6FE4DC
:101E500076E0E2CF8091500521E0382F321B08F464
:101E600030E0832F67E376E0D2CF67E376E0D4CF2C
:101E7000F894E82FE295EF70F0E031A1282F2F7051
:101E800081E090E001C0880F2A95EAF7982F90959D
:101E9000932391A392A1892B82A378940895909182
:101EA000930392FF06C0282F28712830F9F4877F0A
:101EB000846093FF06C0282F28712831F1F4877EB3
:101EC00084612091940320FF06C0382F3871383088
:101ED000D9F4877F816021FF06C0282F287128311F
:101EE000D1F4877E816194FD877E0895282F247127
:101EF0002430F9F68B7F8860DCCF282F24712431C1
:101F000001F78B7E8861DDCF382F3171313019F7C1
:101F10008E7F8860E0CF282F2171213121F78E7EBE
:101F20008861E1CF972F7A30B8F46630A8F4863014
:101F300098F470E026E0929F600D711D1124FB0162
:101F40009CE3899FE00DF11D1124EE0FFF1FE25469
:101F5000FF4F85919491089580E090E00895CF938C
:101F6000DF93EC0182389105B9F108F041C081336B
:101F7000910509F49FC050F58932910509F48FC08D
:101F80008A9709F49EC0C11520E5D20708F0BDC0AC
:101F9000C11530E4D30708F00AC1C03ED10508F0EE
:101FA000A5C0CD3CD10508F000C1C83AD10508F064
:101FB0008FC0C53AD10508F0F0C0C130D10539F164
:101FC000209729F1C430D10510F546C0853391051D
:101FD00009F460C0C997B9F680919303837009F042
:101FE00044C18091940383FF12C0C9E2D0E00FC0C6
:101FF000833E9105A1F178F4803E910509F1823E7E
:10200000910509F0C0CF8091930382FD21C0CE01DC
:10201000DF91CF910895863E910561F1873E91054C
:1020200071F1843E910509F0AECF8091940381FF58
:10203000EECF80919303C7EED0E084FD0DC0E7CFD3
:102040008091930380FD33C09091940390FFDFCF84
:10205000C3EED0E084FFDBCFD0E0C0E0D8CF8091EA
:10206000930382FDFFC09091940390FDFEC084FF16
:10207000CECFF2CF8091930383FDDDCFC8CF809187
:10208000930383FDF5C09091940391FFF0CFC4EECC
:10209000D0E0BDCF8091930385FFB9CFA6CF8091CB
:1020A000930385FDE8C08091940383FFB0CFC9E31B
:1020B000D0E0ADCF8091930386FFA9CFCAE2D0E0F4
:1020C000A6CF8091930386FFA2CFC1E3D0E09FCF3C
:1020D000C13CD10508F6C85AD0E0CC0FDD1FCA5864
:1020E000DE4F0990D881C02DD46491CFC11540E254
:1020F000D40708F0AAC0C11581E0D80708F087CF3F
:10210000C83ED10508F483CFA7CFC03622E5D20759
:1021100018F5C03432E5D30708F053C0C03242E5A9
:10212000D40708F047C0C11582E5D80708F47FC07E
:102130002C2F2695269540E2249F900111248C2F68
:102140008370C1E0D0E002C0CC0FDD1F8A95E2F7BA
:10215000C22BD32BDD685BCFC03A22E5D20760F4F7
:10216000C03832E5D30708F441C0CF71D0E0DC2F8E
:10217000CC27C46FD06A4BCFC03C42E5D40708F4EB
:102180004AC0C03E82E5D80708F066CFDC2FCC27D6
:10219000CC27DF71C06FD06A3ACFC55AD0E0CD5896
:1021A000DE4FC881D0E0D06432CFD06530CFDF7051
:1021B000D06A2DCFCF71D0E0DC2FCC27C16FD06A91
:1021C00026CF2C2F26952695277080E2289F9001F8
:1021D00011248C2F8370C1E0D0E002C0CC0FDD1F32
:1021E0008A95E2F7C22BD32BDC6811CF2C2F2695D2
:1021F0002695277040E2249F900111248C2F837034
:10220000C1E0D0E002C0CC0FDD1F8A95E2F7C22BFF
:10221000D32BDA68FCCE8C2F8F710E944F0FC82F02
:10222000D0E0DC2FCC27CC27DF71D062F0CE8C2F12
:102230008F710E944F0F35E0D695C7953A95E1F71B
:10224000CF709C2FEC01D069E2CE8D2F8F710E9450
:102250004F0F90E0982F882788279F719C012C2B87
:10226000E901E3CFC2EED0E0D2CEC0EED0E0CFCED7
:10227000C6EED0E0CCCEC5E3D0E0C9CE0E94F404D7
:102280000895809147038111109247030895809526
:1022900090913505982390933505089580913D03DD
:1022A0009091FC02981301C008958F5F8770FACF58
:1022B000B0E0A0E0EEE5F1E10C942F2E7C0100915E
:1022C0009103109192038091480390914903082B48
:1022D000192BCFE0D0E0CC24C394D12CBC2EC60166
:1022E0000C2E02C0880F991F0A94E2F780239123D5
:1022F000892B49F4219790F7B12C8B2DCDB7DEB700
:10230000E9E00C944B2EB7018C2F0E94920F0E9493
:10231000AF0F019779F3F1CFCF93DF93EC010E94D8
:102320005811BE010E94920F0E94AF0FDF91CF9112
:1023300008959A3078F5863068F5E82FF0E086E069
:10234000989FE00DF11D11249E2F977083E0F69564
:10235000E7958A95E1F7EE0FFF1FEE0FFF1FEC5296
:10236000FD4F50E040E080E0219130E0092E02C0B6
:10237000369527950A94E2F721703327042E01C081
:10238000220F0A94EAF7822B4F5F5F4F44305105CA
:1023900059F7089580E008959A3098F5863088F5C9
:1023A000E82FF0E086E0989FE00DF11D11248E2FBC
:1023B000877041E001C0440F8A95EAF783E0F69503
:1023C000E7958A95E1F7EE0FFF1FEE0FFF1FEC5226
:1023D000FD4F30E020E070E05191DF011197CB011B
:1023E000022E02C0969587950A94E2F78170819536
:1023F0008527842385278C932F5F3F4F2430310519
:1024000059F708959093920380939103089521E0E2
:1024100030E002C0220F331F8A95E2F720953095F5
:102420008091910390919203822393230E94021240
:10243000089590913E038095892380933E03282F31
:10244000277091F4282F082E000C330B92171306D7
:1024500059F09091940392FF07C0859585958595D5
:102460000E94071210923E03089521E030E002C05E
:10247000220F331F8A95E2F7809191039091920386
:10248000822B932B0E94021208959093490380930C
:1024900048030895FC0183819481892B29F0808170
:1024A000918189238F3FF1F480E008950E94AF0F5E
:1024B00092959F70963089F058F4925F9F70923099
:1024C00098F7803F19F030F4883E70F781E0089566
:1024D0009A5FF4CF843F41F7F9CF883EB8F3813F4C
:1024E00019F7F4CF86819781009701F78081918158
:1024F0000E948C11DDCFA5E0B0E0E1E8F2E10C94A0
:10250000352E9C01FC01868197810097E1F485E0DE
:10251000DE01119601900D928A95E1F7F901228171
:1025200089819A81222399F0662389F00E945811AB
:10253000182F682F89819A810E94CC1169817A8134
:10254000812F0E94920F2596E3E00C94512E0E9459
:102550009911182FF3CF9C013A9521153F4120F492
:1025600091FF02C082E0089580E008950F931F93C9
:10257000CF93DF938B01EA0190914205943061F58E
:102580008093E9008FEF9091E800815095FD06C09F
:1025900095ED9A95F1F700008111F5CF8091E80053
:1025A00085FF1AC00E94A603811111C08091E80026
:1025B00085FD06C08091E8008E778093E800F2CF19
:1025C000F80181918F018093F100219779F7809133
:1025D000E8008E778093E800DF91CF911F910F91F3
:1025E000089543E050E0BC0182E00E94B6120895D5
:1025F000CF93DF93EC0148E050E0BC0181E00E9402
:10260000B61288E0FE01A8E3B5E001900D928A952C
:10261000E1F7DF91CF9108956E9A3EB13F7B2EB1E5
:1026200020644FB7F8948BEE93E0FC015191CF01F9
:1026300068E02EB9000000C057FF3EB9550F0000FA
:1026400000C000C000C03EB900C06A9591F7F4E038
:10265000873B9F0751F74FBF8FE594E00197F1F754
:1026600000C000000895B0E0A0E0E9E3F3E10C94BD
:102670002E2E7C015B016A0180917E0301E010E057
:102680008A3010F40AE010E0C1E0D0E0B501C701E3
:10269000F6010995811104C021960C171D072CF431
:1026A000CDB7DEB7EAE00C944A2ECC9F9001CD9FC7
:1026B000300D300D112490E080E045E34A95F1F7AC
:1026C0000000019682179307C1F7E0CF8091540371
:1026D000811110C08091D80080618093D8008AE178
:1026E0008A95F1F700C08091D90080FF0AC081E08F
:1026F0008093540381E090915403913009F080E07D
:10270000089582E0809354030E948703109242054B
:10271000F1CF0E946613882359F0E0912B05F091C8
:102720002C05309729F00190F081E02D099508954E
:1027300080E008950F931F930E946613882329F069
:102740000E94F4041F910F9108950E94F4040091D7
:102750007F03109180032091810330918203600FE9
:10276000711F821F931FEECFCF92DF92EF92FF92E5
:102770006B017C010E9466138823A1F02FB7F894A7
:10278000609130057091310580913205909133054B
:102790002FBF6C197D098E099F09FF90EF90DF9084
:1027A000CF9008950E949A13F4CF4F925F926F9248
:1027B0007F928F929F92AF92BF92CF92DF92EF92D1
:1027C000FF926091E6037091E7038091E803909196
:1027D000E9030E94B4136B017C010E949A134B0120
:1027E0005C018092E6039092E703A092E803B09226
:1027F000E903A091BD03EDEBF3E08A2F90E04FEFEA
:102800005FEF60E070E04C195D096E097F09A91364
:1028100028C08093BD038091EA03811135C0909157
:102820007A05892F837019F0892F86958695909166
:102830006401913009F441C0992341F1923009F4C7
:102840003FC0933009F43FC0FF90EF90DF90CF90EE
:10285000BF90AF909F908F907F906F905F904F90C0
:102860000895218D328D2901712C612C4415550557
:102870006605770520F481509F5F3296C8CF2C0DF6
:102880003D1D328F218FF8CF80E0D1CF10926101B2
:1028900080924C0590924D05A0924E05B0924F0546
:1028A00089E2EDEBF3E0A0E5B5E001900D928A95A9
:1028B000E1F781E080936401C7CF0E94F80CC4CF98
:1028C0000E942A06C1CF80917905882351F046E005
:1028D00050E06CE170E08AE795E00E94EA2E1092E9
:1028E000790560914C0570914D0580914E05909150
:1028F0004F050E94B413603171058105910508F4FC
:10290000A3CF10926401A0CFEAE7F5E085E38083CE
:102910008091650190916601A09167018183928306
:10292000A3838FE784838FEF858346E050E06CE1DB
:1029300070E0CF010E94EA2E109279050895AFE071
:10294000B0E0E5EAF4E10C942B2E8E010F5F1F4FEF
:102950008AE0D8011D928A95E9F786E3C82E81E0C6
:10296000D82EF12CE12CAA24A394B12C26E3822E9C
:1029700021E0922EF60181916F018F3F09F442C050
:10298000F894E82FE295EF70F0E021A18F70A50197
:1029900002C0440F551F8A95E2F7CA01922F982B67
:1029A00091A392A18095892382A3789400C0E0E34B
:1029B000F1E0712C31E021912F3F09F46BC0A22F7F
:1029C000A295AF70B0E090968C9190E02F7002C00D
:1029D000959587952A95E2F780FD5CC0832F782A2C
:1029E000330F8E169F0639F7F601319780818F3F9E
:1029F00011F00E94380F50EA5A95F1F7F801EE0DE8
:102A0000FF1D70828FEFE81AF80A95E0E916F104CD
:102A100009F0B0CF4AE050E0B80185E893E00E94A9
:102A20001E2F009741F02AE0F801A5E8B3E00190DD
:102A30000D922A95E1F700919003892B69F181E0CD
:102A400080934C030E94000590934B0380934A03AC
:102A500080914A0390914B030E94E504059700F191
:102A600010E009561C4F45E050E065E873E0C801EE
:102A70000E941E2FD12C892B51F085E0E5E8F3E070
:102A8000D80101900D928A95E1F7DD24D39410923C
:102A90004C0307C080E0A3CF80914C038111D8CFB5
:102AA000D12C0E946613C82EE0919003DE011B9684
:102AB0007D01882309F47AC085E01D928A95E9F7A3
:102AC0000E2F10E009561C4F80917E038A30D8F5F6
:102AD00044E45CE1B701C8010E943313882309F480
:102AE00054C04BEE5BE1B701C8010E943313882349
:102AF00009F44BC040EF5AE1B701C8010E943313FB
:102B0000882309F442C04EE85AE1B701C8010E9487
:102B100033138823D1F110927E0380918F0390E0CC
:102B200045E050E0B70189569C4F0E941E2F21E0DE
:102B300020935303892BE1F4C12C8C2D8D292F96E2
:102B4000EDE00C94472E80914D0390914E030E942E
:102B5000E504843F914008F0BBCF80915303882364
:102B600059F385E0F70111928A95E9F71092530322
:102B7000A0918F03B0E0A956BC4F85E0FE013B96C3
:102B800001900D928A95E1F7D8CF80917E038F3F17
:102B900031F08F5F80937E038A3008F4BECF0E94AD
:102BA000000590934E0380934D03D7CFF0E0E95694
:102BB000FC4F85E0A7E6B3E001900D928A95E1F71E
:102BC00065E070E087E693E00E94950580936603D8
:102BD0004091B70350E06091B60370E062557C4FBE
:102BE000C7010E942B2F8B859C8590936E03809349
:102BF0006D0362E070E0C7010E94950580936C034D
:102C000080906F0390907003A0907103B090720356
:102C100080914F0390915003A0915103B0915203C2
:102C200088169906AA06BB06D1F080924F039092AF
:102C30005003A0925103B09252030E946613811177
:102C40000EC00E94F404861A970AA80AB90A809254
:102C50007F0390928003A0928103B092820386E06A
:102C6000E3E7F3E0AAE7B5E001900D928A95E1F77A
:102C700010917903112349F08091EA03811105C075
:102C80000E94F80C80E00E942A061093EA0355CFB8
:102C9000809135059091BA04892B8093CC02909154
:102CA0004703992391F0892B8093CC0220E08EEC8E
:102CB00092E0FC013191CF0131112F5FF2E0843DB0
:102CC0009F07B9F721110E94411148E050E06FE3DE
:102CD00073E08CEC92E00E941E2F892BA9F088E013
:102CE000ECECF2E0AFE3B3E001900D928A95E1F7EE
:102CF000E0912B05F0912C05309731F00280F381A3
:102D0000E02D8CEC92E009950895EEECF2E086E07F
:102D1000DF011D928A95E9F790E080E00E9431057D
:102D200090E080E00E940C051092BA040E944816C0
:102D30000895AAE2B0E0EFE9F6E10C94352E84E4C0
:102D400095E02091F100FC012193CF01F5E08C3456
:102D50009F07B9F780914505833009F470C0B8F436
:102D6000813009F447C0823009F4B3C08091E80093
:102D700083FF80C280914405909145059A3008F008
:102D800079C2E92FF0E0E95AF04D0C94A42E8A3074
:102D900009F48EC08B3009F46FC0893039F7809107
:102DA0004405813219F780914805909149050297B1
:102DB000E8F68091E800877F8093E8008091E80042
:102DC00082FF38C09091F3008091F200029731F4B5
:102DD0008091F100813011F0863021F48091F10072
:102DE000809337058091E8008B778093E8000E94FC
:102DF000D703BCCF80914405813A09F0B7CF8091C9
:102E0000E800877F8093E80080914805909149050C
:102E1000892B61F468E088E395E070E00E94830408
:102E20008091E8008B778093E800A0CF60E090E08D
:102E300080E0F3CF809142058111C0CF97CF809180
:102E40004405813A09F092CF809148059091490557
:102E5000892B09F08BCF8091E800877F8093E80071
:102E60008091E80080FFFCCF809160018093F100A9
:102E70008091E8008E77B9CF80914405813209F0C6
:102E800075CF8091480590914905892B09F06ECF47
:102E90008091E800877F8093E8000E94D7038091AB
:102EA000460580936001109235050E9485165ECF1D
:102EB00080914405813209F059CF8091E800877FE5
:102EC0008093E8000E94D7038091470580933605E0
:102ED0004DCF80914405813A09F048CF8091E800B8
:102EE000877F8093E8008091E80080FFFCCF80918D
:102EF0003605BCCF803899F0823809F0BBC180918B
:102F000048058F70873008F0B5C18093E900809143
:102F1000EB0085FB882780F91092E90006C08091BC
:102F2000400590914105911182609091E800977F52
:102F30009093E8008093F1001092F1008091E800F6
:102F40008E7794C1882309F482C1823009F092C13E
:102F500080914605811185C1809148058F702FEFC2
:102F6000280F263008F086C18093E9002091EB00FD
:102F700020FF77C1933031F48091EB008062809321
:102F8000EB006FC19091EB0090619093EB0021E01A
:102F900030E001C0220F8A95EAF72093EA001092F0
:102FA000EA008091EB008860EACF811163C1109143
:102FB00046051F778091E3008078812B8093E300A2
:102FC0008091E800877F8093E8000E94D70380917A
:102FD000E80080FFFCCF8091E30080688093E300ED
:102FE00082E0111183E08093420544C18058823011
:102FF00008F040C180914605909147058C3D23E043
:103000009207A1F583E08A838AE289834FB7F89417
:10301000DE01139620E03EE051E2E32FF0E0509312
:103020005700E49120FF03C0E295EF703F5FEF701F
:103030008E2F90E0EA30C0F0C7968D939D932F5F5E
:10304000243159F74FBF8091E800877F8093E800D3
:103050006AE270E0CE0101960E9483048091E8004C
:103060008B778093E80006C1C096E7CF4091480572
:1030700050914905292F33272330310509F444C0E5
:1030800078F52130310509F46FC08BE390E0E7EC6F
:10309000F5E02230310509F0EDC02091E800277FEE
:1030A0002093E80020914A0530914B058217930741
:1030B00008F49C0140E02115310509F064C041117C
:1030C00062C08091E80082FDC9CF809142058823CB
:1030D00029F2853019F28091E80083FFF2CFBECF4C
:1030E00021323105A9F12232310509F0C3C0411561
:1030F000510509F443C04130510509F0BBC082E3DA
:1031000090E0E5E5F5E0C9CF992781309105C1F060
:10311000009759F0029709F0ADC0E4E1F6E0E491C0
:103120008E2F90E0E4E1F6E007C0EEE3F6E0E491F4
:103130008E2F90E0EEE3F6E0009709F49BC0ADCF50
:10314000EEE2F6E0E4918E2F90E0EEE2F6E0F4CFCE
:103150004115510571F04130510509F08BC089E0EE
:1031600090E0E2EFF5E099CF82E190E0E2E0F6E076
:1031700094CF89E090E0E9EDF5E08FCF80E490E036
:10318000E7E8F5E08ACF80914205882309F466CF0D
:10319000853009F463CF8091E80083FD5FCF809193
:1031A000E80082FD8ECF8091E80080FF84CF90916F
:1031B000F3008091F2002115310519F08830910556
:1031C00050F041E0089709F040E08091E8008E77E8
:1031D0008093E80070CF44914093F10031962150E4
:1031E00031090196E8CF803809F044C08091E800A9
:1031F000877F8093E800809143058093F1009ECE05
:10320000811138C0109146051230A0F58091E80078
:10321000877F8093E800109343050E94D703112312
:1032200011F084E005C08091E30087FDFACF81E0D2
:103230008093420542E061EC81E00E94F60342E2A5
:1032400061EC82E00E94F6038091420513C08091F8
:103250004605813079F481E0933009F080E0809375
:1032600041051092E9008091E800877F8093E80093
:103270000E94D7038091E80083FF0AC08091E80094
:10328000877F8093E8008091EB0080628093EB0061
:10329000AA96E3E00C94512E109235050E948516F3
:1032A0002FEF84E39CE0215080409040E1F700C084
:1032B000000088E19CE00FB6F894A8958093600028
:1032C0000FBE90936000FFCF882341F080959091CE
:1032D000BA0489238093BA040E9448160895809105
:1032E000B704882329F082E20E9464191092B7047F
:1032F0000895882339F09091BA04982B9093BA04DA
:103300000E9448160895882321F00E9447110E94C8
:1033100048160895882339F090913505982B90939D
:1033200035050E9448160895882391F19CEF980F67
:10333000913A80F4EEECF2E024ED32E091918913C1
:1033400003C0DF0111971C922E173F07B9F70E94A7
:103350004816089590E2980F983050F4877091E0E5
:1033600001C0990F8A95EAF7892F0E944711EFCF84
:103370009BE5980F933028F490E080E00E9431059F
:103380000895885A893120F490E080E00E940C056D
:1033900008950F931F93CF93C82F882349F18CEF83
:1033A0008C0F813AB8F50EEC12E084ED92E0F80152
:1033B0002191C21709F122E0E43DF207C9F7EFEFCE
:1033C00080E0D8019D918D01C91781F0EF3F19F47C
:1033D000911101C0E82F8F5F863099F7EF3F31F0F0
:1033E0000E2E000CFF0BE453FD4FC2830E944816C3
:1033F000CF911F910F910895EEECF2E02191C2134D
:1034000003C0DF0111971C928E179F07B9F70E9426
:103410004816D5CF80E28C0F883068F4C77021E061
:1034200030E001C0220FCA95EAF780913505822B62
:1034300080933505DBCFEBE5EC0FE33040F4F0E0B3
:10344000ED58FE4F808190E00E943105D1CFC85ADF
:10345000C93170F6EC2FF0E0EE0FFF1FEA58FE4F77
:10346000808191810E940C05C3CF1F93CF93DF937E
:10347000182FD0E0C0E0893311F4C0E5D0E0812FEF
:103480000E94C919209739F4812F0E949419DF9165
:10349000CF911F9108958FE99FE00197F1F700C048
:1034A00000002197EFCF811108C089EA611101C0A6
:1034B0008AEA0E94351A80E00895813029F48EE46A
:1034C0006111F7CF8BE4F5CF823079F3833099F730
:1034D000F6CF0F931F93CF93DF93C82F8B010E94DA
:1034E000AB12D82F0E9479198C2F0E94C91901158F
:1034F000110559F48C2F0E9494198D2F0E94641984
:10350000DF91CF911F910F9108958FE99FE001976F
:10351000F1F700C0000001501109E9CFA7E0B0E0C9
:10352000E4E9FAE10C94342E86E0EAE7F5E0DE0106
:10353000119601900D928A95E1F78091EA038F83AD
:1035400047E050E063E773E0CE0101960E941E2F32
:1035500000917A0310917B0320917C0330917D03CD
:10356000EFB7F894409130055091310560913205E4
:1035700070913305EFBF401B510B620B730B443648
:1035800051056105710518F411E0892B21F1809135
:10359000290190912A018A599C4F4091280150E0BD
:1035A0004830510510F047E050E0BE016F5F7F4F9B
:1035B0000E942B2F85E090E00E94B02D182F8823C9
:1035C00051F00E94F40460937A0370937B0380931C
:1035D0007C0390937D03812F2796E4E00C94502E7A
:1035E000A4E0B0E0E6EFFAE10C94352E40916203DE
:1035F0005091630360916403709165032FB7F89451
:103600008091300590913105A0913205B09133053C
:103610002FBF841B950BA60BB70B11E084369105C9
:10362000A105B10570F10E949A136E5F7F4F8F4F15
:103630009F4F69837A838B839C8380912101909132
:1036400022018A599C4F4091200150E0453051059C
:1036500010F044E050E0BE016F5F7F4F0E942B2FBF
:1036600084E090E00E94B02D182F882351F00E9432
:10367000F4046093620370936303809364039093F4
:103680006503812F2496E3E00C94512E4F925F92B4
:103690007F928F929F92AF92BF92CF92DF92EF92E2
:1036A000FF920F931F93CF93DF930F92CDB7DEB7A7
:1036B000C62E4A015901482E880F5508C2010E94A2
:1036C000B02D782E882309F480C0C20133E0880F22
:1036D000991F3A95E1F7FC01E050FF4F438150E01C
:1036E0004115510511F041E050E080509F4FFC0121
:1036F000648175816A597C4FCE0101960E942B2FFF
:10370000F40140815181628173812FB7F8948091D7
:10371000300590913105A0913205B09133052FBF4E
:10372000841B950BA60BB70B84369105A105B1053B
:1037300040F4B701C8010E9495059981891709F4E1
:1037400044C00C2C000CDD08C6010E94B02D782E60
:10375000811113C0712C872D0F90DF91CF911F9194
:103760000F91FF90EF90DF90CF90BF90AF909F9020
:103770008F907F905F904F900895C60123E0880F4F
:10378000991F2A95E1F7FC01E050FF4F438150E07B
:10379000E416F50608F4A70180509F4FFC016481F0
:1037A00075816A597C4FC5010E942B2FB701C80152
:1037B0000E94950599818913CDCF0E94F404F401EC
:1037C0006083718382839383C6CFA701B801C5014B
:1037D0000E942B2FC0CFA2E0B0E0E1EFFBE10C9400
:1037E0002F2E82E0E82EF12C0DE613E09E012F5FD4
:1037F0003F4F4EE553E063E082E00E94461BC82E37
:10380000882339F100E080E01DC0D0908403D00E01
:103810002D2D30E0A90142555C4F7A01E1E0F0E046
:10382000EC0FFD1FE00FF11D1081FA019081191BB3
:10383000B12E1B149CF0912F17FD90E0191B111154
:1038400018C00F5F909183030917F8F281110E944D
:103850003E118C2D2296E9E00C944B2EBA94F70180
:1038600080818F5F808360E08D2D0E94531A8C2DA4
:10387000E0CF1F5FF70180818150808361E08D2D53
:103880000E94531A8C2DDBCFA5E0B0E0EAE4FCE106
:103890000C94302E6B0185E0E82EF12C07E613E046
:1038A0009E012F5F3F4F4AE553E061E080E00E94B8
:1038B000461B882349F095E0FE013196A5E5B3E06B
:1038C00001900D929A95E1F795E0E5E5F3E0D601D8
:1038D00001900D929A95E1F72596E8E00C944C2E14
:1038E0009091940392FB222720F9281779F080FB0E
:1038F00092F990939403609193037091940384E000
:1039000090E00E94182F82E00E9419120895B0E002
:10391000A0E0EDE8FCE10C942F2E8C01FC018381EA
:103920009481892B31F08081918189238F3F09F027
:10393000AAC3CDB7DEB7E9E00C944B2E1092350543
:103940000E9441110E94000588579C4E9093AD0340
:103950008093AC0381E08093B704A9C38091B7043E
:10396000882309F454C0E0903505F09047030E9485
:10397000000588579C4E9093AD038093AC03F801EB
:103980008281882309F443C08F2D8E298D7909F017
:1039900061C0C034F2E5DF0760F5C11522E5D2074A
:1039A000B0F5C11530E4D30750F4C11580E2D80753
:1039B00008F045C0C63ED10551F1CE010AC0C1157F
:1039C00090E5D907D0F7F8018581807F01F1CE011C
:1039D00099271092BA048832910508F045C08E31BB
:1039E000910508F048C00497A8F182E08093BA04DA
:1039F00042C0C43BE2E5DE0751F0CE01C53BF2E533
:103A0000DF07B8F48056924580349105B0F6F8018E
:103A10008281811186C0809135058272FE01E0525B
:103A2000F847E531F10508F08CC0EF59F04D0C94E2
:103A3000A42E805C9245809708F0BFCFE8CFF801B4
:103A40008581807F21F68D2F8F71823151F028F48E
:103A5000823039F00E946F19DACF8431C1F2863199
:103A6000C9F71092BA04F6CF8D32910509F4BDCF93
:103A700028F48A9779F70E944816C9CF8C349105AB
:103A8000D1F38D329240B9F3E5CF80917A0591E080
:103A9000892780937A05109264018091790581606D
:103AA0008093790504C345E156E06FE176E00E941A
:103AB000AB05FDC24FE156E065E176E0F8CF41E0AD
:103AC00056E06BE076E0F3CF4BE056E061E076E065
:103AD000EECF47EE55E064EF75E0E9CF44EF55E0F7
:103AE00067EE75E0E4CF4DEC55E06AED75E0DFCFB1
:103AF0004AED55E06DEC75E0DACF41EB55E06FEB48
:103B000075E0D5CF4FEB55E061EB75E0D0CF81E0AC
:103B10000E945B03CCC285E0FBCF8DE0F9CF82E150
:103B2000F7CFC330FCE7DF0709F487C008F044C0D3
:103B3000C1153CE7D30709F44FC0C130DC4709F495
:103B400082C0F80186819781009709F48AC00E949B
:103B5000AF0FD82FC92FF801F280D580D2943FE063
:103B6000D32280913E038770C1F0CF2CFF20B1F0AB
:103B7000892F807F803421F080E28D0F883068F0BB
:103B80008091940382FF09C082E00E941912809103
:103B90003E038770CC24C3948111C12CBC2EB294F7
:103BA0002FE0B222FBE0FB1508F4D9C0EB2DF0E0CA
:103BB000EA58F04D0C94A42ECB359CE7D90709F4B4
:103BC0004EC0CC35ECE7DE0709F43FC0CA35DC4710
:103BD00009F0B7CF81E040C0109235050E948516EC
:103BE0002FEF34E38CE0215030408040E1F700C0FB
:103BF000000081E08093E00080E28093D800109282
:103C0000C900EFE1FEE43197F1F700C0000087E062
:103C100090EBDC018093800590938105A093820551
:103C2000B093830588E19CE00FB6F894A895809343
:103C300060000FBE90936000FFCF6FEF7FEF90E0CA
:103C400080E00E94182F0E944C198091940382FBFF
:103C5000882780F991E089270E94701C72CF80E04C
:103C6000FBCF8281C081D181882369F0CE010E947F
:103C70005811F82E682FCE010E94CC11BE018F2D55
:103C80000E94920F64CFCE010E949911F82EF6CFB8
:103C90002C2F2F70E22EC07F19F0E29490EFE922D2
:103CA000FF20B9F0EE2069F080E28D0F883010F02F
:103CB000D11109C080913505E82AE09235050E94AE
:103CC00048168D2F4AC08091BA04E82AE092BA04BF
:103CD000F6CF8D2F0E949419EE2009F440C080E2A7
:103CE0008D0F883010F0D11104C08E2D0E94471125
:103CF00006C0E0948091BA04E822E092BA040E94DF
:103D000048162DC03C2F3F70E32EC07FC03219F003
:103D1000E29480EFE822DD2381F0D13009F46FC016
:103D2000FF2009F479C0DD2009F46FC0F801858116
:103D300080FFC7CF8F70858368C02091940322FDD8
:103D400037C0FF2079F1EE2039F080913505E82A5F
:103D5000E09235050E94481680E00E94C919EB2DBB
:103D6000E850FF0B349710F40E948913CC20A9F07F
:103D700080913E0380FD11C0F801128285958595E2
:103D800085950E943512C8010E94871C80913E03D0
:103D90008595859585950E94071260E0C8010E946F
:103DA0007B12C7CD80E00E949419EE20C1F29DCF16
:103DB000FF2099F090914703892F8E29D11003C0DD
:103DC0000E948A19CCCFE1E0DE12FACF22FFC7CFE2
:103DD000981729F280934703C2CFD11006C00E94E2
:103DE00041118E2D0E948319BACFF1E0DF1609F43C
:103DF000B6CF8E2D0E9483190E944111B0CFFF20B3
:103E000031F025E02D1508F4AACF8E2DD9CF34E05E
:103E10003D1508F4A4CFE5CFDD2019F3D93349F4DB
:103E2000FFEF27EE33E0F15020403040E1F700C0D3
:103E300000008D2F0E94941992CF8C2F8695869525
:103E4000837069F0813009F08ACF8D2F9C2F937099
:103E5000F11002C080E090E00E940C0580CF8D2F11
:103E60009C2F9370F11002C080E090E00E94310519
:103E700076CF8C2F837009F03FC0F11070CF4D2F9B
:103E8000429546954770440F440F2D2F2F7030E018
:103E9000042E02C0220F331F0A94E2F790E080E064
:103EA000D4FF09C08FE090E002C0880F991F4A95A7
:103EB000E2F780959095C695C695C370C23099F08B
:103EC00078F44091480350914903C13039F0822B76
:103ED000932B842395230E94451241CF242B352B0D
:103EE000822B932BF8CF822B932B20914803309178
:103EF000490382279327EFCF8695FF2011F08C2F5F
:103F00008170882309F42BCF4D2F42954695477039
:103F1000440F440F2D2F2F7030E0042E02C0220FCB
:103F2000331F0A94E2F790E080E0D4FF09C08FE0ED
:103F300090E002C0880F991F4A95E2F7809590950E
:103F4000C695C695C370C23099F078F4409191033C
:103F500050919203C13039F0822B932B8423952307
:103F60000E940212FCCE242B352B822B932BF8CFF0
:103F7000822B932B209191033091920382279327D8
:103F8000EFCFCF70FF2029F08C2F0E9435128D2F9C
:103F900017CF8D2F0E9483198C2F0E940712DFCE1E
:103FA000D23F71F160F4D03FB9F0D13F81F0FF20F2
:103FB00009F459C0D11085CE8C2F8F7125C0D33F05
:103FC00031F1D43FA1F78091940382FD2EC08C2F54
:103FD0008F71FF2011F318C0FF2069F084E08D1568
:103FE00008F4BDCECF7181E090E002C0880F991F28
:103FF000CA95E2F7BFCF95E09D1508F4B0CEF2CF99
:104000008C2F8F71F110C9CF0E943512A8CE90E08D
:1040100080E0FF2009F4A4CFCF7181E090E002C0DE
:10402000880F991FCA95E2F79BCFFF2089F0CF71C7
:104030008C2F0E9435128091940382FF07C0E8E024
:10404000CE9FC0011124836080933E038C2FDCCF70
:1040500081E00E941912F1E0FD1508F080CE82E0A7
:104060000E9419127CCEDD2059F0D93309F0E1CE3F
:104070002FEF37EE83E0215030408040E1F7D7CE7C
:104080008C2F8F718ACF61E0C8010E947B12EC01F6
:1040900083379C4709F062CCF8018281882339F08C
:1040A0008091B704882309F449CC0E946F1980914C
:1040B0003E03877009F43DCCF8018281882309F41E
:1040C00038CC8091940382FF34CC82E00E94191294
:1040D00030CCCF93DF938091F902807F09F049C003
:1040E0008091F602882309F444C080913D03D09169
:1040F000FC026091F4027091F502A091F702B09178
:10410000F802C62FC723D817A1F190E0109711F03D
:10411000CF3F19F401968770F6CF9C0143E0220F40
:10412000331F4A95E1F7F901E350FD4F41814713F1
:10413000F1CF40814613EECF42814111EBCF438155
:1041400054814A1B5B0B483C510520F78091F902D2
:104150008F7080618093F902F901EE5FFC4F8081DE
:104160008F708061808384EF92E00E94871C0E94A0
:104170004E11DF91CF910895A5E1B0E0E2ECF0E2BD
:104180000C942E2E8C0185E0F801DE0151960190F1
:104190000D928A95E1F7F801E28064EFA62E62E0C5
:1041A000B62E6091F7027091F8026115710509F45D
:1041B0005CC19091F4024091F502892F84238F3FD6
:1041C00009F453C120813181C380D480F090F6027C
:1041D000F601E61BF70BFF2009F411C18091F902EB
:1041E000582F507FE83CF10508F0C4C0511175C04C
:1041F000FE2C43131EC092131CC06091FA027091F2
:10420000FB02F801468157816417750791F4E110AC
:1042100010C08F7080618093F902C5010E94871CD5
:104220008091F902F80185838F2D6596EAE00C9460
:104230004A2EC114D10429F0822F83238F3F09F025
:104240002FC180E0F82FF170DF2E80FF3CC08091FD
:104250003D034091FC02841315C0298B3A8B898958
:104260009A890E948C11292F22952F702230F8F004
:10427000243020F59F70F9F0F8019581907FD9F4F2
:10428000D12C1FC090E0FC0153E0EE0FFF1F5A95A8
:10429000E1F7E350FD4F5181351306C050812513DE
:1042A00003C05281E5120FC001968770D4CF9F7072
:1042B00011F0882329F3805E883010F3C8010E9432
:1042C000871CFD2CB1CFEE2009F4AECF8091F9020E
:1042D00081608093F902F12CA7CF43131BC0921386
:1042E00019C04091FA025091FB02F80126813781F2
:1042F0004217530779F4E1100DC08583C8010E946D
:10430000871C88E0F801A4EFB2E001900D928A9535
:10431000E1F78ACFC8010E944A12882339F1EE20C2
:1043200029F18091F9028032A0F02091F4023091BD
:10433000F5023A8729871B86DD86CC868E87809199
:10434000FA029091FB02988B8F87CE0109960E940A
:10435000871C88E0F801A4EFB2E001900D928A95E5
:10436000E1F70E946920FF24F3945ECFC8010E9408
:10437000871CF9CF51110AC084EF92E00E94871C7C
:1043800088E0F50111928A95E9F7A5CF431318C08B
:10439000921316C04091FA025091FB02F801268157
:1043A00037814217530761F4E1100AC08583C801C1
:1043B0000E94871C88E0F50111928A95E9F734CFB5
:1043C000C8010E944A12882389F2EE2079F2809176
:1043D000F902803208F4BDCF2091F4023091F50249
:1043E0003A8329831B82DD82CC828E838091FA02FC
:1043F0009091FB0298878F83CE010196A8CFE83C6D
:10440000F105C0F6FE2CEE2009F4B0CF43131FC017
:1044100092131DC02091FA023091FB02F8018681AF
:1044200097812817390799F49091F90290FD69CF87
:10443000907F09F466CF8091F9028583903F09F45B
:104440005DCF982F907F905F8F70892B56CFC801DA
:104450000E944A1281117DCF8091F9028160809380
:10446000F902C8010E94871CDFCEEE2009F47ECF3E
:10447000C8010E944A12F82E882309F477CF88E0F9
:10448000F801A4EFB2E001900D928A95E1F78091D6
:10449000F4029091F5020E948C110E946920C4CE12
:1044A00081E08E25CFCEA0E1B0E0E9E5F2E20C9408
:1044B000362E29873A874B875C876D877E878F8763
:1044C000988BCE0109960E94BC20811112C088E011
:1044D000FE013996DE01119601900D928A95E1F761
:1044E0008C859D85892B29F089859A8589238F3F25
:1044F00081F580913D039091FC02891317C060966D
:10450000E2E00C94522E93E0AA0FBB1F9A95E1F7BC
:10451000A350BD4F98E0FE01319601900D929A95FF
:10452000E1F78093FC020E944E11E3CFB8E08B9F2D
:10453000C001112483509D4F0E94BC208823F9F2B2
:1045400080913D0390E001968770992780933D0309
:10455000D0CFA091FC02B0E0CD01019687709927E1
:1045600020913D032817190671F6109235050E9417
:1045700085161092FC0210923D0388E0E4EFF2E011
:10458000DF011D928A95E9F7B4CFB0E0A0E0EBEC33
:10459000F2E20C942A2E8091BC04882371F0E09101
:1045A000BB048CE0982E9AE0792E8091BC04E81729
:1045B00048F01092BC041092BB04CDB7DEB7EEE019
:1045C0000C94462E882483948E0E8092BB04CE2EAB
:1045D000D12CE99DF0011124E354FB4F8381948198
:1045E000892B31F08081918189238F3F09F0CBC0E5
:1045F000E82DDBCF18968D919C918F3F980709F499
:10460000D0C0009779F0019709F4AAC09C9CF001F2
:104610009D9CF00D1124E354FB4F148213821092E1
:10462000BA04E6CFCEE3D5E0FE018491882371F38E
:10463000813009F03EC031968491813031F4229668
:10464000FE0184910E94351A07C0823039F4229607
:10465000FE0184910E94C9192196E6CF833031F47E
:104660002296FE0184910E949419F6CF843009F0BD
:1046700075C02296FE01249190E080E0FE01319603
:104680002053330B2A30310548F0019728F3EFE926
:10469000FFE03197F1F700C00000F7CF789EA0014E
:1046A000799E500D1124C901840F951F2491EF01AB
:1046B000E5CFE82FF0E0E254FB4F6490E82FE69559
:1046C000E695E6950E2F10E0F801E255FB4FE490D9
:1046D0008770F12C082E02C0F594E7940A94E2F753
:1046E00021E0E222FF24F801E256FB4FA490B12C16
:1046F000082E02C0B594A7940A94E2F791E0A9228B
:10470000BB2402571B4FF801049110E002C015951D
:1047100007958A95E2F701701127E114F10419F069
:1047200081EE0E94C919A114B10419F086EE0E940D
:10473000C919862D0E94351AA114B10419F086EE0C
:104740000E949419E114F10419F081EE0E94941969
:104750000115110509F480CF8CE274CFEF017CCFF5
:1047600070E060E08DE490E00E94691A70E060E023
:104770008AE492E00E94691A70E060E08AE290E0C8
:104780000E94691A43CF9C9CD0019D9CB00D1124BE
:10479000A354BB4F16968D919C911797892B09F4C2
:1047A00029CF208131814281538164817581868145
:1047B00097810E9453222ACF109228051092270534
:1047C00010925F0180912605809325050E94840543
:1047D0000E94C5220895B0E0A0E0E1EFF3E20C945E
:1047E000262EC0912505E7E0FE2E01E010E0FCE05A
:1047F0002F2EAEEFEA2E809126058C1309C00E9461
:10480000C5220E948405CDB7DEB7E2E10C94422EAA
:10481000D0E0FE01EE0FFF1FE35EFA4F8081918131
:10482000F89EF001F99EF00D1124E65BFE4F248105
:10483000211159C03090BC04ADEBB4E030E020E071
:10484000412C5F01231508F04CC01A966D907C90A6
:104850001B97F501808091804FEF5FEF512CC52CA5
:10486000D12CF601EE0FFF1FE80DF91D6591749133
:104870006616770609F4A601672B11F05394EFCF63
:104880004F3F5407B9F1B80102C0660F771F4A9530
:10489000E2F7462AA801052C02C0440F551F0A94CE
:1048A000E2F7415051094416150601F5229EF00128
:1048B000239EF00D1124E354FB4FF89ED001F99E86
:1048C000B00D1124A65BBE4F12962D913C9113970B
:1048D00037832683E082E1829187808771E0159695
:1048E0007C930E9456052196C37085CF14961C9226
:1048F0001E9213972F5F3F4F1C96A4CFA9E1B0E003
:10490000E4E8F4E20C94262E498B5A8B6B8B7C8B5B
:104910008D8B61111092BA041D861E861F86188A1F
:1049200085E0FE017196DE01199601900D928A953F
:10493000E1F78C859D85892B31F089859A858923BE
:104940008F3F09F0BFC129853A854B855C856D8510
:104950007E858F8598890E945322C2C021E5C216A8
:104960002CE7D20629F4882379F00E94DC23EBCFD0
:1049700032E5C3163CE7D30639F4882329F0809149
:104980005F018111F2CFAEC10AE411E0E12CB12C3C
:10499000A12C88248394912C9EEF592E4424439477
:1049A000F8016081718166246A94762C20E0422FA0
:1049B00050E0FA01EE0FFF1FE60FF71F859194916B
:1049C000C816D90609F43A01892B11F02F5FEFCFF1
:1049D000F12CFFEF6F167F0609F444C0F801448103
:1049E000F0905F018F2D411180E0F82FF170FF2EC4
:1049F000F801258086819B85992309F4F2C0FF2068
:104A000009F4EFC0211014C0A401062C01C0440F0A
:104A10000A94EAF7842B86838091B8049091B904B4
:104A2000C29730F442E350E05093B9044093B80485
:104A3000C40102C0880F991F2A95E2F70197F80177
:104A400026812817190671F4809127059091280571
:104A5000009709F449C00E94E504C39708F444C0D4
:104A6000F8014482EF28FFEFAF1ABF0A095F1F4F1A
:104A700023E0A216B10409F093CF8B85882309F4B3
:104A80000CC1EE2009F409C10E940005909328058D
:104A9000809327058091BC04883010F591E0980F31
:104AA0009093BC0498E0FE013996DE0111960190C6
:104AB0000D929A95E1F73CE0839FC0011124835445
:104AC0009B4F28E0FE013196DC0101900D922A9562
:104AD000E1F72FEF3FEFFC0131872087D386C286B5
:104AE0006996E2E10C94422E80912505609026059E
:104AF000982FF0E0E0E0861114C0909325050E1782
:104B00001F0709F4AFCF90E0FC01EE0FFF1FE35E3B
:104B1000FA4FB182A082019683709927809326056F
:104B2000A1CF282E312CF101EE0FFF1FE35EFA4FCB
:104B300020813181F7E0F29FD001F39FB00D112465
:104B4000A65BBE4F2D913C911197398F288F712C08
:104B500060E070E0E72FF0E0EE0FFF1F288D398D49
:104B6000E20FF31F2591349121153105E1F0F80191
:104B70000190F081E02DFF8BEE8B60E005C02417E3
:104B8000350709F47F2C6F5FE62FF0E0EE0FFF1F73
:104B90004E895F89E40FF51F4591549141155105E8
:104BA00071F77F5FD7CF7720C9F0F801671708F05A
:104BB000FD0144820E171F0721F490932505F72C61
:104BC00051CF981305C0AE17BF0711F49F5F9370C4
:104BD00091012F5F3F4F822F83708DCFF0E0E0E097
:104BE000F7CF90E0211020C0B40102C0660F771FFC
:104BF0002A95E2F79B01215031092817390731F432
:104C0000442309F448C0C5010E945605C401062C7E
:104C100001C0880F0A94EAF7982F9095F8018681D1
:104C200089238683F22C1ECF9C01062C02C0359569
:104C300027950A94E2F7A90141705527BC016150FC
:104C4000710986239723892B11F5452B01F1F80172
:104C500082819381892BC1F01B821C821D821E825E
:104C600059825A820E9400058160582F9D838C834F
:104C7000F801828193818F83988729813A814B81C2
:104C80006D817E810E945322F8011582BFCFF22FE1
:104C9000F1702F2EBBCF2F2CB9CF9091250580918D
:104CA0002605981731F00E94EB23EE2009F44BCE35
:104CB00017CF0E94C52210922805109227050E9446
:104CC0008405F3CF61E0CE0109960E947B126C014E
:104CD0008B85F0E5CF16FCE7DF0609F03FCE882391
:104CE00009F452CE81E080935F012DCE67EE7EEF16
:104CF00090E080E00E94182F60E082E090E00E9447
:104D0000FA2E60E083E090E00E94FA2E10924903B0
:104D10001092480360E074E184E090E00E94182F54
:104D200060E086E090E00E94FA2E6FEF87E090E06E
:104D30000E94FA2E40E050E0BA0188E090E00E9424
:104D40000C2F60E08DE090E00E94FA2E40E050E0F1
:104D5000BA0188E190E00E940C2F60E087E190E0CA
:104D60000E94FA2E40E050E0BA018CE190E00E94EF
:104D70000C2F70E060E080E290E00E94182F40E08D
:104D800050E0BA0188E190E00E940C2F40E050E032
:104D9000BA018FE090E00E940C2F40E050E0BA0191
:104DA00083E190E00E940C2F08951F920F920FB69E
:104DB0000F9211242F933F934F935F936F937F93A1
:104DC0008F939F93AF93BF93CF93DF93EF93FF9313
:104DD000D091E900DF708091EC00C82FC17080FD98
:104DE000C0E81092E9008091F000877F8093F00086
:104DF00078940E9499161092E9008091F0008860E2
:104E00008093F000CD2BCF70C093E900FF91EF911C
:104E1000DF91CF91BF91AF919F918F917F916F91D2
:104E20005F914F913F912F910F900FBE0F901F9068
:104E300018951F920F920FB60F9211242F933F9344
:104E40004F935F936F937F938F939F93AF93BF9392
:104E5000EF93FF938091E10082FF09C08091E2000F
:104E600082FF05C08091E1008B7F8093E1008091FB
:104E7000DA0080FF24C08091D80080FF20C080919C
:104E8000DA008E7F8093DA008091D90080FF9DC088
:104E900080E189BD82E189BD09B400FEFDCF81E0DA
:104EA0008093420580913405811109C00E948703D7
:104EB0000E9428048091E20084608093E200809147
:104EC000E10080FF17C08091E20080FF13C0809155
:104ED000E2008E7F8093E2008091E2008061809307
:104EE000E2008091D80080628093D80019BC85E0F0
:104EF000809342058091E10084FF2BC08091E20005
:104F000084FF27C080E189BD82E189BD89B5982FE2
:104F1000917080FFFBCF8091D8008F7D8093D80067
:104F20008091E1008F7E8093E1008091E2008F7E8E
:104F30008093E2008091E20081608093E2008091A2
:104F40004305882309F447C084E08093420580919B
:104F500042058091E10083FF27C08091E20083FF3A
:104F600023C08091E100877F8093E10082E08093FD
:104F70004205109243058091E1008E7F8093E1000D
:104F80008091E2008E7F8093E2008091E200806158
:104F90008093E20042E060E080E00E94F6038091AE
:104FA000F00088608093F000FF91EF91BF91AF9186
:104FB0009F918F917F916F915F914F913F912F9131
:104FC0000F900FBE0F901F90189519BC10924205BC
:104FD0001092340574CF8091E30087FD93E09093A5
:104FE0004205B5CF78941F921FB61F9211248F935C
:104FF0009F93AF93BF938091300590913105A0911D
:105000003205B09133050196A11DB11D8093300585
:1050100090933105A0933205B0933305BF91AF91C2
:105020009F918F911F901FBE1F9018951F921FB6C2
:105030001F9211248F939F93AF93BF9380912F055D
:10504000811113C08091300590913105A0913205F6
:10505000B09133054196A11DB11D80933005909309
:105060003105A0933205B0933305BF91AF919F9165
:105070008F911F901FBE1F901895CDB7DEB72F9749
:105080000FB6F894DEBF0FBECDBF85B7806885BF71
:1050900085B7806885BF84B7877F84BF0FB6F894D3
:1050A000A8958091600088618093600010926000F4
:1050B0000FBE80E890E00FB6F89480936100909363
:1050C00061000FBE8FEF99E09093CB028093CA02EC
:1050D0000E9487030E9428048091E20084608093EC
:1050E000E2007894809142058823A1F01091E900B4
:1050F0001F709091EC00892F817090FD80E8182B33
:105100001092E9008091E80083FD0E9499161F70BB
:105110001093E90082E084BD93E095BD9AEF97BDBE
:1051200080936E0010927F0310928003109281038F
:105130001092820355985D988FE891E00197F1F7FE
:1051400000C000000E94010A80933B010E94661388
:1051500081110E94C42C80913B0192E0811190E06A
:105160009093B60382E0A82FA91BA093840390918B
:105170003B018093B70390913B018093830380911F
:105180003B0181110CC083E38093460182E380934D
:10519000440186EF8093470187EF8093450196E4B1
:1051A000A92E91E0B92E44E451E08A01950161E015
:1051B00070E0F90181919F01E82FE295EF70F0E036
:1051C000D1A08F707B0101C0EE0C8A95EAF79E2D6D
:1051D00090959D2191A382A18E2982A3D8018D91C2
:1051E0008D01E82FE295EF70F0E0D1A08F707B0188
:1051F00001C0EE0C8A95EAF79E2D90959D2191A312
:1052000082A18E2982A3B1E028343B0791F6EFE812
:10521000F1E03197F1F700C000001091B70368EB9F
:1052200073E0FB018E2F861B811708F4B2C18091B9
:105230003B0181112CC085E0E8E6F1E0DE01179624
:1052400001900D928A95E1F78F81809336018885D0
:10525000809337018985809338018A85809339014D
:105260008B8580933A0186E0EDE6F1E0DE01119650
:1052700001900D928A95E1F7FE013196A0E3B1E02D
:10528000CE01079621912D938E179F07D9F7809114
:105290003B0195E0811190E09093900385E0891B9C
:1052A00080938F0306E311E0F80181918F018F3F16
:1052B00011F00E94380FF1E00B331F07A9F700E34C
:1052C00011E086E3E82E81E0F82ED8018D918D0162
:1052D0008F3F11F00E94380FE016F106B1F78AE017
:1052E000E7E9F3E0DF01282F1D922A95E9F7E5E8C9
:1052F000F3E0DF011D928A95E9F790E080E00E94DB
:10530000E42E873E9E4F11F00E94762682E090E0C8
:105310000E94DC2E8093A10384E090E00E94E42EA2
:10532000909394038093930383E090E00E94DC2E9B
:1053300090E00E944512109250058FEF9FEF9093DE
:105340006A058093690590936C0580936B05909333
:105350006E0580936D059093700580936F05909313
:1053600072058093710590937405809373059093F3
:105370007605809375059093780580937705109254
:10538000BD039093D7038093D6039093D903809362
:10539000D8039093DB038093DA039093DD0380932B
:1053A000DC039093DF038093DE039093E10380930B
:1053B000E0039093E3038093E2039093E5038093EB
:1053C000E40390E080E00E94E42E873E9E4F21F0AF
:1053D0000E9476260E94841481E08093790546E03D
:1053E00050E06CE170E08AE795E00E94CC2E1092CC
:1053F000790580917A058C7F11F40E9484140E94B3
:105400006613811102C00E94C72C8CE391E0909337
:105410002C0580932B058091420500E4F02E00E1DD
:1054200012E1853009F424C10E949F1412EA212E52
:1054300013E0312EE7E9F3E0FE87ED87DF01F101AC
:1054400091918D9123E0EC3AF20709F41FC198176E
:10545000B9F30E9466138F87B2EC8B2EB1E09B2EBE
:10546000E12CAD85BE85DD90BE87AD87F1016190F1
:105470001F016D1409F483C06D242401C12C77240D
:105480007394862D872109F46FC0FD2CF720FF85CA
:10549000FF2399F0CF82E88681E0F11001C080E01F
:1054A00089870E9400058160782F9B878A874F81BA
:1054B000588569858B850E947E24FF2041F0D201AA
:1054C0008C91F12C8F3F19F08C87FF24F3940F2DD2
:1054D00010E08091BD03800F912F911D09976CF111
:1054E000E8E0AE2EB12CA01AB10AB80162547C4F8C
:1054F000A5018EEB93E00E942B2FB8016A537C4FDD
:10550000A50186EC93E00E942B2FA501440F551FA7
:10551000B801660F771F6A527C4F86ED93E00E94B8
:105520002B2FB80162537C4FA5018EEC93E00E94B3
:105530002B2F88E08F198093BD038091BD0390E0ED
:10554000EC85AE2FB0E09D01220F331F22503E4F5D
:10555000AA0FBB1FBD0161507E4F41E0480F9F1550
:1055600008F404C18093BD03C394770CEFEF4E1A87
:105570005E0AF6E0CF1285CFF1013197D082E39435
:1055800026E0820E911C5AE0E5126BCF0E94F404D3
:105590009DC0D5012D915D01822F82958F7090E085
:1055A000DC0190968C9190E02F7002C095958795C4
:1055B0002A95E2F78170DA019D91AD01292F22959C
:1055C0002F7030E0D90190962C9130E09F7002C08E
:1055D000359527959A95E2F790E020FD92E0892B8A
:1055E000819320CE80914205843009F431C00E941D
:1055F000D5138091EA03811105C00E94F80C80E068
:105600000E942A06F1E0F093EA0310922F0588E148
:1056100090E00FB6F894A895809360000FBEF092CA
:10562000600083B7817F846083BF83B7816083BF5D
:105630007894889583B78E7F83BF0FB6F894A8952A
:1056400080916000886180936000109260000FBEBE
:1056500080914105882361F00E949F14E7E9F3E0FF
:105660008191811121C1A1EAB3E0AE17BF07C1F753
:1056700080914205853009F4B5CF109235050E941E
:1056800085160E9489131092EA03CECE9813E1CEBC
:105690000E9400058C018091950390919603081754
:1056A0001907A1F08FEF89838A831B820E9400056E
:1056B0008160782F9D838C8349815A816B818D8194
:1056C0000E947E2410939603009395030E94661314
:1056D0008823A9F180915F01882301F1809127053A
:1056E000909128050097D1F00E94E5042091B8041C
:1056F0003091B9042817390788F4909125058091D5
:105700002605981709F448C00E94EB231092B904AB
:105710001092B80410922805109227058091B704C2
:10572000882369F00E9400052091AC033091AD03FD
:10573000821B930B8F3F9F4710F40E946F190E94AA
:10574000D513E12CD12C8091B703E81670F1D1105C
:105750000E943E110E9489139091BC03891709F49D
:105760005ACE8093BC030E94F40455CE90E0FC0115
:10577000E354FC4FD9015C915183DB015C9151876B
:10578000BC85B18B880F991FFC01E354FC4F128E2E
:10579000118E91E0842FE1CE0E94C522109228053F
:1057A000109227050E948405B9CF0E2D10E0F80154
:1057B000EA5BFE4F8081E82FE295EF70F0E0E0A118
:1057C000F0E08F7002C0F595E7958A95E2F7E170F9
:1057D000D801AC5BBE4F2C91A22FA295AF70B0E068
:1057E00090968C9190E02F7002C0959587952A95A0
:1057F000E2F780FD51C080E08E2BD801A854BC4F49
:10580000EC919E2F9370891709F444C0EE0FEE0FB0
:10581000E82BEC93F090B603FE0CEF70F0E0E65549
:10582000FE4F0E541C4F8081F8019081890F8083B8
:10583000C12C843084F0EF2DF0E0E255FC4F8081E4
:105840008F5F80830E946613C82E882339F160E041
:105850008F2D0E94531AD8018C918D3F84F4EF2D27
:10586000F0E0E255FC4F8081815080830E946613F6
:10587000C82E8823B1F061E08F2D0E94531AF801E1
:105880008081082E000C990B64E070E00E94712E5C
:105890008083DC28E39457CF82E0AECFCC24C3943E
:1058A000DACFCC24C394EBCF09BD19BD09B400FEF7
:1058B000FDCF8091D8008F7D8093D8008091E0004B
:1058C00082608093E0008091E00081FDFCCF109227
:1058D00035050E948516CCCE8EE1489B02C08150D2
:1058E000E1F7489BFECF0895589880E28A95F1F73A
:1058F000589A0895FC013BE03A95F1F798E020E0D2
:1059000080E031E040E14A95F1F7880F489B02C002
:105910008160232742E04A95F1F7000040E14A9573
:10592000F1F7915079F790E19A95F1F799B132E05A
:105930003A95F1F7000040E14A95F1F7917092270E
:105940002081920F90830895A1E0B0E0EAEAFCE2A2
:105950000C94322E19828C017C01E60EF11C0E157E
:105960001F0541F481E09981911180E02196E6E0E4
:105970000C944E2E0E946C2CCE0101960E947A2C23
:10598000F80181938F01EBCF509A589A089550985F
:10599000589AE89AE9E6F0E080818C7F8083089548
:1059A0006150770B91E001C0990F6A95EAF720E00A
:1059B00031E0911108C0222391F0589A80E28A9533
:1059C000F1F758980895492F482339F0589A23271A
:1059D00040E24A95F1F79695ECCF5898F9CF589850
:1059E000EDCFFF920F931F93CF93DF93EC018C01C8
:1059F000060F111DC017D10729F4CDB7DEB7E5E0BA
:105A00000C944F2EF9900E94742C68E08F2D0E9408
:105A1000D02CF0CF1F920F920FB60F9211240F933C
:105A20001F932F933F934F935F936F937F938F9326
:105A30009F93AF93BF93EF93FF93CF93DF930F9217
:105A4000CDB7DEB719820E946C2CCE0101960E9460
:105A50007A2C082F069506950695282F22952570F5
:105A6000902F9570290F922F937026952695920F5F
:105A7000982797708981982B09F05CC0073008F04F
:105A800059C080E18A95F1F7589A509A82E08A9538
:105A9000F1F700C0589888E0089F80011124D801D0
:105AA000A050BF4F1696ED91FC9117973097A9F033
:105AB0006091A8017091A90114962D913C911597C0
:105AC000260F371F11968D919C911297680F791FA1
:105AD00013964C9113978C910995F801E050FF4F64
